{
  "_format": "hh-sol-artifact-1",
  "contractName": "PostContract",
  "sourceName": "contracts/PostContract.sol",
  "abi": [
    {
      "anonymous": false,
      "inputs": [
        {
          "indexed": true,
          "internalType": "uint256",
          "name": "id",
          "type": "uint256"
        },
        {
          "indexed": false,
          "internalType": "string",
          "name": "ipfsHash",
          "type": "string"
        },
        {
          "indexed": false,
          "internalType": "enum PostContract.ContentType",
          "name": "contentType",
          "type": "uint8"
        },
        {
          "indexed": false,
          "internalType": "uint256",
          "name": "timestamp",
          "type": "uint256"
        },
        {
          "indexed": true,
          "internalType": "address",
          "name": "publisher",
          "type": "address"
        },
        {
          "indexed": false,
          "internalType": "string[]",
          "name": "tags",
          "type": "string[]"
        }
      ],
      "name": "PostCreated",
      "type": "event"
    },
    {
      "inputs": [
        {
          "internalType": "string",
          "name": "_ipfsHash",
          "type": "string"
        },
        {
          "internalType": "enum PostContract.ContentType",
          "name": "_contentType",
          "type": "uint8"
        },
        {
          "internalType": "string[]",
          "name": "_tags",
          "type": "string[]"
        }
      ],
      "name": "createPost",
      "outputs": [],
      "stateMutability": "nonpayable",
      "type": "function"
    },
    {
      "inputs": [],
      "name": "getAllTags",
      "outputs": [
        {
          "internalType": "string[]",
          "name": "",
          "type": "string[]"
        }
      ],
      "stateMutability": "view",
      "type": "function"
    },
    {
      "inputs": [
        {
          "internalType": "uint256",
          "name": "_count",
          "type": "uint256"
        }
      ],
      "name": "getLatestPosts",
      "outputs": [
        {
          "components": [
            {
              "internalType": "uint256",
              "name": "id",
              "type": "uint256"
            },
            {
              "internalType": "string",
              "name": "ipfsHash",
              "type": "string"
            },
            {
              "internalType": "enum PostContract.ContentType",
              "name": "contentType",
              "type": "uint8"
            },
            {
              "internalType": "uint256",
              "name": "timestamp",
              "type": "uint256"
            },
            {
              "internalType": "address",
              "name": "publisher",
              "type": "address"
            },
            {
              "internalType": "string[]",
              "name": "tags",
              "type": "string[]"
            }
          ],
          "internalType": "struct PostContract.Post[]",
          "name": "",
          "type": "tuple[]"
        }
      ],
      "stateMutability": "view",
      "type": "function"
    },
    {
      "inputs": [
        {
          "internalType": "uint256",
          "name": "_postId",
          "type": "uint256"
        }
      ],
      "name": "getPost",
      "outputs": [
        {
          "components": [
            {
              "internalType": "uint256",
              "name": "id",
              "type": "uint256"
            },
            {
              "internalType": "string",
              "name": "ipfsHash",
              "type": "string"
            },
            {
              "internalType": "enum PostContract.ContentType",
              "name": "contentType",
              "type": "uint8"
            },
            {
              "internalType": "uint256",
              "name": "timestamp",
              "type": "uint256"
            },
            {
              "internalType": "address",
              "name": "publisher",
              "type": "address"
            },
            {
              "internalType": "string[]",
              "name": "tags",
              "type": "string[]"
            }
          ],
          "internalType": "struct PostContract.Post",
          "name": "",
          "type": "tuple"
        }
      ],
      "stateMutability": "view",
      "type": "function"
    },
    {
      "inputs": [
        {
          "internalType": "address",
          "name": "_publisher",
          "type": "address"
        }
      ],
      "name": "getPostCountByPublisher",
      "outputs": [
        {
          "internalType": "uint256",
          "name": "",
          "type": "uint256"
        }
      ],
      "stateMutability": "view",
      "type": "function"
    },
    {
      "inputs": [
        {
          "internalType": "string",
          "name": "_tag",
          "type": "string"
        }
      ],
      "name": "getPostCountByTag",
      "outputs": [
        {
          "internalType": "uint256",
          "name": "",
          "type": "uint256"
        }
      ],
      "stateMutability": "view",
      "type": "function"
    },
    {
      "inputs": [
        {
          "internalType": "string",
          "name": "_tag",
          "type": "string"
        }
      ],
      "name": "getPostsByTag",
      "outputs": [
        {
          "components": [
            {
              "internalType": "uint256",
              "name": "id",
              "type": "uint256"
            },
            {
              "internalType": "string",
              "name": "ipfsHash",
              "type": "string"
            },
            {
              "internalType": "enum PostContract.ContentType",
              "name": "contentType",
              "type": "uint8"
            },
            {
              "internalType": "uint256",
              "name": "timestamp",
              "type": "uint256"
            },
            {
              "internalType": "address",
              "name": "publisher",
              "type": "address"
            },
            {
              "internalType": "string[]",
              "name": "tags",
              "type": "string[]"
            }
          ],
          "internalType": "struct PostContract.Post[]",
          "name": "",
          "type": "tuple[]"
        }
      ],
      "stateMutability": "view",
      "type": "function"
    },
    {
      "inputs": [
        {
          "internalType": "uint256",
          "name": "_startId",
          "type": "uint256"
        },
        {
          "internalType": "uint256",
          "name": "_endId",
          "type": "uint256"
        }
      ],
      "name": "getPostsInRange",
      "outputs": [
        {
          "components": [
            {
              "internalType": "uint256",
              "name": "id",
              "type": "uint256"
            },
            {
              "internalType": "string",
              "name": "ipfsHash",
              "type": "string"
            },
            {
              "internalType": "enum PostContract.ContentType",
              "name": "contentType",
              "type": "uint8"
            },
            {
              "internalType": "uint256",
              "name": "timestamp",
              "type": "uint256"
            },
            {
              "internalType": "address",
              "name": "publisher",
              "type": "address"
            },
            {
              "internalType": "string[]",
              "name": "tags",
              "type": "string[]"
            }
          ],
          "internalType": "struct PostContract.Post[]",
          "name": "",
          "type": "tuple[]"
        }
      ],
      "stateMutability": "view",
      "type": "function"
    },
    {
      "inputs": [
        {
          "internalType": "uint256",
          "name": "_count",
          "type": "uint256"
        }
      ],
      "name": "getTopTags",
      "outputs": [
        {
          "internalType": "string[]",
          "name": "tags",
          "type": "string[]"
        },
        {
          "internalType": "uint256[]",
          "name": "counts",
          "type": "uint256[]"
        }
      ],
      "stateMutability": "view",
      "type": "function"
    },
    {
      "inputs": [],
      "name": "getTotalPosts",
      "outputs": [
        {
          "internalType": "uint256",
          "name": "",
          "type": "uint256"
        }
      ],
      "stateMutability": "view",
      "type": "function"
    },
    {
      "inputs": [
        {
          "internalType": "uint256",
          "name": "_postId",
          "type": "uint256"
        }
      ],
      "name": "postExists",
      "outputs": [
        {
          "internalType": "bool",
          "name": "",
          "type": "bool"
        }
      ],
      "stateMutability": "view",
      "type": "function"
    },
    {
      "inputs": [
        {
          "internalType": "uint256",
          "name": "",
          "type": "uint256"
        }
      ],
      "name": "posts",
      "outputs": [
        {
          "internalType": "uint256",
          "name": "id",
          "type": "uint256"
        },
        {
          "internalType": "string",
          "name": "ipfsHash",
          "type": "string"
        },
        {
          "internalType": "enum PostContract.ContentType",
          "name": "contentType",
          "type": "uint8"
        },
        {
          "internalType": "uint256",
          "name": "timestamp",
          "type": "uint256"
        },
        {
          "internalType": "address",
          "name": "publisher",
          "type": "address"
        }
      ],
      "stateMutability": "view",
      "type": "function"
    },
    {
      "inputs": [
        {
          "internalType": "string",
          "name": "",
          "type": "string"
        },
        {
          "internalType": "uint256",
          "name": "",
          "type": "uint256"
        }
      ],
      "name": "tagToPosts",
      "outputs": [
        {
          "internalType": "uint256",
          "name": "",
          "type": "uint256"
        }
      ],
      "stateMutability": "view",
      "type": "function"
    }
  ],
  "bytecode": "0x6080604052348015600f57600080fd5b5061221f8061001f6000396000f3fe608060405234801561001057600080fd5b50600436106100cf5760003560e01c80635fe226b41161008c57806394bb94d81161006657806394bb94d8146101c857806396c16cdf146101e9578063c55a3362146101fc578063f795c88d1461020f57600080fd5b80635fe226b4146101985780637038f157146101a05780638c82d066146101b557600080fd5b80630b1e7f83146100d4578063305ee8811461010157806340731c2414610122578063423d735b146101425780634a1a1b3014610162578063566b052114610175575b600080fd5b6100e76100e23660046119f3565b610224565b6040516100f8959493929190611a94565b60405180910390f35b61011461010f366004611add565b6102e9565b6040519081526020016100f8565b6101356101303660046119f3565b610343565b6040516100f89190611bc5565b610155610150366004611bd8565b61059e565b6040516100f89190611bfa565b610114610170366004611d14565b6108f2565b6101886101833660046119f3565b610932565b60405190151581526020016100f8565b600054610114565b6101a8610947565b6040516100f89190611db4565b6101556101c33660046119f3565b610a20565b6101db6101d63660046119f3565b610d22565b6040516100f8929190611dc7565b6101146101f7366004611e15565b6111d9565b61015561020a366004611e15565b611201565b61022261021d366004611e51565b61150e565b005b60016020819052600091825260409091208054918101805461024590611f63565b80601f016020809104026020016040519081016040528092919081815260200182805461027190611f63565b80156102be5780601f10610293576101008083540402835291602001916102be565b820191906000526020600020905b8154815290600101906020018083116102a157829003601f168201915b5050505060028301546003840154600490940154929360ff909116929091506001600160a01b031685565b60008060015b600054811161033c576000818152600160205260409020600401546001600160a01b0380861691160361032a578161032681611fb3565b9250505b8061033481611fb3565b9150506102ef565b5092915050565b61034b6118fa565b60008211801561035d57506000548211155b6103a05760405162461bcd60e51b815260206004820152600f60248201526e125b9d985b1a59081c1bdcdd081251608a1b60448201526064015b60405180910390fd5b600082815260016020818152604092839020835160c08101909452805484529182018054918401916103d190611f63565b80601f01602080910402602001604051908101604052809291908181526020018280546103fd90611f63565b801561044a5780601f1061041f5761010080835404028352916020019161044a565b820191906000526020600020905b81548152906001019060200180831161042d57829003601f168201915b505050918352505060028281015460209092019160ff169081111561047157610471611a5c565b600281111561048257610482611a5c565b8152602001600382015481526020016004820160009054906101000a90046001600160a01b03166001600160a01b03166001600160a01b0316815260200160058201805480602002602001604051908101604052809291908181526020016000905b8282101561059057838290600052602060002001805461050390611f63565b80601f016020809104026020016040519081016040528092919081815260200182805461052f90611f63565b801561057c5780601f106105515761010080835404028352916020019161057c565b820191906000526020600020905b81548152906001019060200180831161055f57829003601f168201915b5050505050815260200190600101906104e4565b505050915250909392505050565b60606000831180156105b257506000548311155b6105f15760405162461bcd60e51b815260206004820152601060248201526f125b9d985b1a59081cdd185c9d08125160821b6044820152606401610397565b82821015801561060357506000548211155b6106405760405162461bcd60e51b815260206004820152600e60248201526d125b9d985b1a5908195b9908125160921b6044820152606401610397565b600061064c8484611fcc565b610657906001611fdf565b90506000816001600160401b0381111561067357610673611c5f565b6040519080825280602002602001820160405280156106ac57816020015b6106996118fa565b8152602001906001900390816106915790505b50905060005b828110156108e757600160006106c88389611fdf565b81526020019081526020016000206040518060c0016040529081600082015481526020016001820180546106fb90611f63565b80601f016020809104026020016040519081016040528092919081815260200182805461072790611f63565b80156107745780601f1061074957610100808354040283529160200191610774565b820191906000526020600020905b81548152906001019060200180831161075757829003601f168201915b505050918352505060028281015460209092019160ff169081111561079b5761079b611a5c565b60028111156107ac576107ac611a5c565b8152602001600382015481526020016004820160009054906101000a90046001600160a01b03166001600160a01b03166001600160a01b0316815260200160058201805480602002602001604051908101604052809291908181526020016000905b828210156108ba57838290600052602060002001805461082d90611f63565b80601f016020809104026020016040519081016040528092919081815260200182805461085990611f63565b80156108a65780601f1061087b576101008083540402835291602001916108a6565b820191906000526020600020905b81548152906001019060200180831161088957829003601f168201915b50505050508152602001906001019061080e565b50505050815250508282815181106108d4576108d4611ff2565b60209081029190910101526001016106b2565b509150505b92915050565b8151602081840181018051600282529282019185019190912091905280548290811061091d57600080fd5b90600052602060002001600091509150505481565b600080821180156108ec575050600054101590565b60606003805480602002602001604051908101604052809291908181526020016000905b82821015610a1757838290600052602060002001805461098a90611f63565b80601f01602080910402602001604051908101604052809291908181526020018280546109b690611f63565b8015610a035780601f106109d857610100808354040283529160200191610a03565b820191906000526020600020905b8154815290600101906020018083116109e657829003601f168201915b50505050508152602001906001019061096b565b50505050905090565b606060008211610a725760405162461bcd60e51b815260206004820152601c60248201527f436f756e74206d7573742062652067726561746572207468616e2030000000006044820152606401610397565b600080548311610a825782610a86565b6000545b90506000816001600160401b03811115610aa257610aa2611c5f565b604051908082528060200260200182016040528015610adb57816020015b610ac86118fa565b815260200190600190039081610ac05790505b50905060005b82811015610d1a576001600082600054610afb9190611fcc565b81526020019081526020016000206040518060c001604052908160008201548152602001600182018054610b2e90611f63565b80601f0160208091040260200160405190810160405280929190818152602001828054610b5a90611f63565b8015610ba75780601f10610b7c57610100808354040283529160200191610ba7565b820191906000526020600020905b815481529060010190602001808311610b8a57829003601f168201915b505050918352505060028281015460209092019160ff1690811115610bce57610bce611a5c565b6002811115610bdf57610bdf611a5c565b8152602001600382015481526020016004820160009054906101000a90046001600160a01b03166001600160a01b03166001600160a01b0316815260200160058201805480602002602001604051908101604052809291908181526020016000905b82821015610ced578382906000526020600020018054610c6090611f63565b80601f0160208091040260200160405190810160405280929190818152602001828054610c8c90611f63565b8015610cd95780601f10610cae57610100808354040283529160200191610cd9565b820191906000526020600020905b815481529060010190602001808311610cbc57829003601f168201915b505050505081526020019060010190610c41565b5050505081525050828281518110610d0757610d07611ff2565b6020908102919091010152600101610ae1565b509392505050565b60608060008311610d755760405162461bcd60e51b815260206004820152601c60248201527f436f756e74206d7573742062652067726561746572207468616e2030000000006044820152606401610397565b6003546000908411610d875783610d8b565b6003545b9050806001600160401b03811115610da557610da5611c5f565b604051908082528060200260200182016040528015610dd857816020015b6060815260200190600190039081610dc35790505b509250806001600160401b03811115610df357610df3611c5f565b604051908082528060200260200182016040528015610e1c578160200160208202803683370190505b506003549092506000906001600160401b03811115610e3d57610e3d611c5f565b604051908082528060200260200182016040528015610e7057816020015b6060815260200190600190039081610e5b5790505b506003549091506000906001600160401b03811115610e9157610e91611c5f565b604051908082528060200260200182016040528015610eba578160200160208202803683370190505b50905060005b600354811015610ff05760038181548110610edd57610edd611ff2565b906000526020600020018054610ef290611f63565b80601f0160208091040260200160405190810160405280929190818152602001828054610f1e90611f63565b8015610f6b5780601f10610f4057610100808354040283529160200191610f6b565b820191906000526020600020905b815481529060010190602001808311610f4e57829003601f168201915b5050505050838281518110610f8257610f82611ff2565b6020026020010181905250600260038281548110610fa257610fa2611ff2565b90600052602060002001604051610fb99190612008565b908152602001604051809103902080549050828281518110610fdd57610fdd611ff2565b6020908102919091010152600101610ec0565b5060005b60035481101561114e57600061100b826001611fdf565b90505b6003548110156111455782818151811061102a5761102a611ff2565b602002602001015183838151811061104457611044611ff2565b6020026020010151101561113d57600083838151811061106657611066611ff2565b6020026020010151905083828151811061108257611082611ff2565b602002602001015184848151811061109c5761109c611ff2565b602002602001018181525050808483815181106110bb576110bb611ff2565b60200260200101818152505060008584815181106110db576110db611ff2565b602002602001015190508583815181106110f7576110f7611ff2565b602002602001015186858151811061111157611111611ff2565b60200260200101819052508086848151811061112f5761112f611ff2565b602002602001018190525050505b60010161100e565b50600101610ff4565b5060005b838110156111d05782818151811061116c5761116c611ff2565b602002602001015186828151811061118657611186611ff2565b60200260200101819052508181815181106111a3576111a3611ff2565b60200260200101518582815181106111bd576111bd611ff2565b6020908102919091010152600101611152565b50505050915091565b60006002826040516111eb919061207d565b9081526040519081900360200190205492915050565b60606000600283604051611215919061207d565b908152604080519182900360209081018320805480830285018301909352828452919083018282801561126757602002820191906000526020600020905b815481526020019060010190808311611253575b50505050509050600081516001600160401b0381111561128957611289611c5f565b6040519080825280602002602001820160405280156112c257816020015b6112af6118fa565b8152602001906001900390816112a75790505b50905060005b8251811015610d1a57600160008483815181106112e7576112e7611ff2565b602002602001015181526020019081526020016000206040518060c00160405290816000820154815260200160018201805461132290611f63565b80601f016020809104026020016040519081016040528092919081815260200182805461134e90611f63565b801561139b5780601f106113705761010080835404028352916020019161139b565b820191906000526020600020905b81548152906001019060200180831161137e57829003601f168201915b505050918352505060028281015460209092019160ff16908111156113c2576113c2611a5c565b60028111156113d3576113d3611a5c565b8152602001600382015481526020016004820160009054906101000a90046001600160a01b03166001600160a01b03166001600160a01b0316815260200160058201805480602002602001604051908101604052809291908181526020016000905b828210156114e157838290600052602060002001805461145490611f63565b80601f016020809104026020016040519081016040528092919081815260200182805461148090611f63565b80156114cd5780601f106114a2576101008083540402835291602001916114cd565b820191906000526020600020905b8154815290600101906020018083116114b057829003601f168201915b505050505081526020019060010190611435565b50505050815250508282815181106114fb576114fb611ff2565b60209081029190910101526001016112c8565b600083511161155f5760405162461bcd60e51b815260206004820152601960248201527f4950465320686173682063616e6e6f7420626520656d707479000000000000006044820152606401610397565b600a815111156115aa5760405162461bcd60e51b8152602060048201526016602482015275546f6f206d616e79207461677320286d61782031302960501b6044820152606401610397565b6000805490806115b983611fb3565b919050555060005b81518110156117b75760008282815181106115de576115de611ff2565b6020026020010151511161162a5760405162461bcd60e51b81526020600482015260136024820152725461672063616e6e6f7420626520656d70747960681b6044820152606401610397565b603282828151811061163e5761163e611ff2565b60200260200101515111156116955760405162461bcd60e51b815260206004820152601b60248201527f54616720746f6f206c6f6e6720286d61782035302063686172732900000000006044820152606401610397565b60028282815181106116a9576116a9611ff2565b60200260200101516040516116be919061207d565b90815260405160209181900382019020600080548254600181018455928252929020015581516004908390839081106116f9576116f9611ff2565b602002602001015160405161170e919061207d565b9081526040519081900360200190205460ff166117af57600382828151811061173957611739611ff2565b6020908102919091018101518254600181018455600093845291909220019061176290826120e8565b506001600483838151811061177957611779611ff2565b602002602001015160405161178e919061207d565b908152604051908190036020019020805491151560ff199092169190911790555b6001016115c1565b506040518060c0016040528060005481526020018481526020018360028111156117e3576117e3611a5c565b8152602001428152602001336001600160a01b0316815260200182815250600160008054815260200190815260200160002060008201518160000155602082015181600101908161183491906120e8565b5060408201518160020160006101000a81548160ff0219169083600281111561185f5761185f611a5c565b02179055506060820151600382015560808201516004820180546001600160a01b0319166001600160a01b0390921691909117905560a082015180516118af91600584019160209091019061192e565b50506000546040513392507f9726a48359d4d3914448162150640fc8144a965ac6def99db8e8fd873bc5fd6a906118ed9087908790429088906121a6565b60405180910390a3505050565b6040805160c08101825260008082526060602083015290918201908152600060208201819052604082015260609081015290565b828054828255906000526020600020908101928215611974579160200282015b82811115611974578251829061196490826120e8565b509160200191906001019061194e565b50611980929150611984565b5090565b8082111561198057600061199882826119a1565b50600101611984565b5080546119ad90611f63565b6000825580601f106119bd575050565b601f0160209004906000526020600020908101906119db91906119de565b50565b5b8082111561198057600081556001016119df565b600060208284031215611a0557600080fd5b5035919050565b60005b83811015611a27578181015183820152602001611a0f565b50506000910152565b60008151808452611a48816020860160208601611a0c565b601f01601f19169290920160200192915050565b634e487b7160e01b600052602160045260246000fd5b60038110611a9057634e487b7160e01b600052602160045260246000fd5b9052565b85815260a060208201526000611aad60a0830187611a30565b9050611abc6040830186611a72565b60608201939093526001600160a01b03919091166080909101529392505050565b600060208284031215611aef57600080fd5b81356001600160a01b0381168114611b0657600080fd5b9392505050565b805182526000602082015160c06020850152611b2c60c0850182611a30565b90506040830151611b406040860182611a72565b506060830151606085015260018060a01b03608084015116608085015260a083015184820360a086015281815180845260208401915060208160051b85010160208401935060005b82811015611bb957601f19868303018452611ba4828651611a30565b60209586019594909401939150600101611b88565b50979650505050505050565b602081526000611b066020830184611b0d565b60008060408385031215611beb57600080fd5b50508035926020909101359150565b6000602082016020835280845180835260408501915060408160051b86010192506020860160005b82811015611c5357603f19878603018452611c3e858351611b0d565b94506020938401939190910190600101611c22565b50929695505050505050565b634e487b7160e01b600052604160045260246000fd5b604051601f8201601f191681016001600160401b0381118282101715611c9d57611c9d611c5f565b604052919050565b600082601f830112611cb657600080fd5b81356001600160401b03811115611ccf57611ccf611c5f565b611ce2601f8201601f1916602001611c75565b818152846020838601011115611cf757600080fd5b816020850160208301376000918101602001919091529392505050565b60008060408385031215611d2757600080fd5b82356001600160401b03811115611d3d57600080fd5b611d4985828601611ca5565b95602094909401359450505050565b600082825180855260208501945060208160051b8301016020850160005b83811015611da857601f19858403018852611d92838351611a30565b6020988901989093509190910190600101611d76565b50909695505050505050565b602081526000611b066020830184611d58565b604081526000611dda6040830185611d58565b828103602084015280845180835260208301915060208601925060005b81811015611da8578351835260209384019390920191600101611df7565b600060208284031215611e2757600080fd5b81356001600160401b03811115611e3d57600080fd5b611e4984828501611ca5565b949350505050565b600080600060608486031215611e6657600080fd5b83356001600160401b03811115611e7c57600080fd5b611e8886828701611ca5565b935050602084013560038110611e9d57600080fd5b915060408401356001600160401b03811115611eb857600080fd5b8401601f81018613611ec957600080fd5b80356001600160401b03811115611ee257611ee2611c5f565b8060051b611ef260208201611c75565b91825260208184018101929081019089841115611f0e57600080fd5b6020850192505b83831015611f545782356001600160401b03811115611f3357600080fd5b611f428b602083890101611ca5565b83525060209283019290910190611f15565b80955050505050509250925092565b600181811c90821680611f7757607f821691505b602082108103611f9757634e487b7160e01b600052602260045260246000fd5b50919050565b634e487b7160e01b600052601160045260246000fd5b600060018201611fc557611fc5611f9d565b5060010190565b818103818111156108ec576108ec611f9d565b808201808211156108ec576108ec611f9d565b634e487b7160e01b600052603260045260246000fd5b600080835461201681611f63565b60018216801561202d576001811461204257612072565b60ff1983168652811515820286019350612072565b86600052602060002060005b8381101561206a5781548882015260019091019060200161204e565b505081860193505b509195945050505050565b6000825161208f818460208701611a0c565b9190910192915050565b601f8211156120e357806000526020600020601f840160051c810160208510156120c05750805b601f840160051c820191505b818110156120e057600081556001016120cc565b50505b505050565b81516001600160401b0381111561210157612101611c5f565b6121158161210f8454611f63565b84612099565b6020601f82116001811461214957600083156121315750848201515b600019600385901b1c1916600184901b1784556120e0565b600084815260208120601f198516915b828110156121795787850151825560209485019460019092019101612159565b50848210156121975786840151600019600387901b60f8161c191681555b50505050600190811b01905550565b6080815260006121b96080830187611a30565b6121c66020840187611a72565b84604084015282810360608401526121de8185611d58565b97965050505050505056fea2646970667358221220816d95398ff28761770a8b9c53da3aab6b7cecb43873b4e263b03da7302c29a964736f6c634300081c0033",
  "linkReferences": {},
  "deployedLinkReferences": {}
}