{
  "_format": "hh-sol-artifact-1",
  "contractName": "PostContract",
  "sourceName": "contracts/PostContract.sol",
  "abi": [
    {
      "anonymous": false,
      "inputs": [
        {
          "indexed": true,
          "internalType": "uint256",
          "name": "id",
          "type": "uint256"
        },
        {
          "indexed": false,
          "internalType": "string",
          "name": "ipfsHash",
          "type": "string"
        },
        {
          "indexed": false,
          "internalType": "enum PostContract.ContentType",
          "name": "contentType",
          "type": "uint8"
        },
        {
          "indexed": false,
          "internalType": "uint256",
          "name": "timestamp",
          "type": "uint256"
        },
        {
          "indexed": true,
          "internalType": "address",
          "name": "publisher",
          "type": "address"
        }
      ],
      "name": "PostCreated",
      "type": "event"
    },
    {
      "inputs": [
        {
          "internalType": "string",
          "name": "_ipfsHash",
          "type": "string"
        },
        {
          "internalType": "enum PostContract.ContentType",
          "name": "_contentType",
          "type": "uint8"
        }
      ],
      "name": "createPost",
      "outputs": [],
      "stateMutability": "nonpayable",
      "type": "function"
    },
    {
      "inputs": [
        {
          "internalType": "uint256",
          "name": "_count",
          "type": "uint256"
        }
      ],
      "name": "getLatestPosts",
      "outputs": [
        {
          "components": [
            {
              "internalType": "uint256",
              "name": "id",
              "type": "uint256"
            },
            {
              "internalType": "string",
              "name": "ipfsHash",
              "type": "string"
            },
            {
              "internalType": "enum PostContract.ContentType",
              "name": "contentType",
              "type": "uint8"
            },
            {
              "internalType": "uint256",
              "name": "timestamp",
              "type": "uint256"
            },
            {
              "internalType": "address",
              "name": "publisher",
              "type": "address"
            }
          ],
          "internalType": "struct PostContract.Post[]",
          "name": "",
          "type": "tuple[]"
        }
      ],
      "stateMutability": "view",
      "type": "function"
    },
    {
      "inputs": [
        {
          "internalType": "uint256",
          "name": "_postId",
          "type": "uint256"
        }
      ],
      "name": "getPost",
      "outputs": [
        {
          "components": [
            {
              "internalType": "uint256",
              "name": "id",
              "type": "uint256"
            },
            {
              "internalType": "string",
              "name": "ipfsHash",
              "type": "string"
            },
            {
              "internalType": "enum PostContract.ContentType",
              "name": "contentType",
              "type": "uint8"
            },
            {
              "internalType": "uint256",
              "name": "timestamp",
              "type": "uint256"
            },
            {
              "internalType": "address",
              "name": "publisher",
              "type": "address"
            }
          ],
          "internalType": "struct PostContract.Post",
          "name": "",
          "type": "tuple"
        }
      ],
      "stateMutability": "view",
      "type": "function"
    },
    {
      "inputs": [
        {
          "internalType": "address",
          "name": "_publisher",
          "type": "address"
        }
      ],
      "name": "getPostCountByPublisher",
      "outputs": [
        {
          "internalType": "uint256",
          "name": "",
          "type": "uint256"
        }
      ],
      "stateMutability": "view",
      "type": "function"
    },
    {
      "inputs": [
        {
          "internalType": "uint256",
          "name": "_startId",
          "type": "uint256"
        },
        {
          "internalType": "uint256",
          "name": "_endId",
          "type": "uint256"
        }
      ],
      "name": "getPostsInRange",
      "outputs": [
        {
          "components": [
            {
              "internalType": "uint256",
              "name": "id",
              "type": "uint256"
            },
            {
              "internalType": "string",
              "name": "ipfsHash",
              "type": "string"
            },
            {
              "internalType": "enum PostContract.ContentType",
              "name": "contentType",
              "type": "uint8"
            },
            {
              "internalType": "uint256",
              "name": "timestamp",
              "type": "uint256"
            },
            {
              "internalType": "address",
              "name": "publisher",
              "type": "address"
            }
          ],
          "internalType": "struct PostContract.Post[]",
          "name": "",
          "type": "tuple[]"
        }
      ],
      "stateMutability": "view",
      "type": "function"
    },
    {
      "inputs": [],
      "name": "getTotalPosts",
      "outputs": [
        {
          "internalType": "uint256",
          "name": "",
          "type": "uint256"
        }
      ],
      "stateMutability": "view",
      "type": "function"
    },
    {
      "inputs": [
        {
          "internalType": "uint256",
          "name": "_postId",
          "type": "uint256"
        }
      ],
      "name": "postExists",
      "outputs": [
        {
          "internalType": "bool",
          "name": "",
          "type": "bool"
        }
      ],
      "stateMutability": "view",
      "type": "function"
    },
    {
      "inputs": [
        {
          "internalType": "uint256",
          "name": "",
          "type": "uint256"
        }
      ],
      "name": "posts",
      "outputs": [
        {
          "internalType": "uint256",
          "name": "id",
          "type": "uint256"
        },
        {
          "internalType": "string",
          "name": "ipfsHash",
          "type": "string"
        },
        {
          "internalType": "enum PostContract.ContentType",
          "name": "contentType",
          "type": "uint8"
        },
        {
          "internalType": "uint256",
          "name": "timestamp",
          "type": "uint256"
        },
        {
          "internalType": "address",
          "name": "publisher",
          "type": "address"
        }
      ],
      "stateMutability": "view",
      "type": "function"
    }
  ],
  "bytecode": "0x6080604052348015600f57600080fd5b50610f788061001f6000396000f3fe608060405234801561001057600080fd5b50600436106100885760003560e01c8063566b05211161005b578063566b05211461011b5780635fe226b41461013e5780638c82d06614610146578063b1574c771461015957600080fd5b80630b1e7f831461008d578063305ee881146100ba57806340731c24146100db578063423d735b146100fb575b600080fd5b6100a061009b366004610a68565b61016e565b6040516100b1959493929190610aff565b60405180910390f35b6100cd6100c8366004610b48565b610233565b6040519081526020016100b1565b6100ee6100e9366004610a68565b61028d565b6040516100b19190610bd1565b61010e610109366004610be4565b61041d565b6040516100b19190610c06565b61012e610129366004610a68565b6106a9565b60405190151581526020016100b1565b6000546100cd565b61010e610154366004610a68565b6106be565b61016c610167366004610c95565b6108f8565b005b60016020819052600091825260409091208054918101805461018f90610d5f565b80601f01602080910402602001604051908101604052809291908181526020018280546101bb90610d5f565b80156102085780601f106101dd57610100808354040283529160200191610208565b820191906000526020600020905b8154815290600101906020018083116101eb57829003601f168201915b5050505060028301546003840154600490940154929360ff909116929091506001600160a01b031685565b60008060015b6000548111610286576000818152600160205260409020600401546001600160a01b03808616911603610274578161027081610daf565b9250505b8061027e81610daf565b915050610239565b5092915050565b6102bf6040805160a0810182526000808252606060208301529091820190815260006020820181905260409091015290565b6000821180156102d157506000548211155b6103145760405162461bcd60e51b815260206004820152600f60248201526e125b9d985b1a59081c1bdcdd081251608a1b60448201526064015b60405180910390fd5b600082815260016020818152604092839020835160a081019094528054845291820180549184019161034590610d5f565b80601f016020809104026020016040519081016040528092919081815260200182805461037190610d5f565b80156103be5780601f10610393576101008083540402835291602001916103be565b820191906000526020600020905b8154815290600101906020018083116103a157829003601f168201915b505050918352505060028281015460209092019160ff16908111156103e5576103e5610ac7565b60028111156103f6576103f6610ac7565b8152600382015460208201526004909101546001600160a01b031660409091015292915050565b606060008311801561043157506000548311155b6104705760405162461bcd60e51b815260206004820152601060248201526f125b9d985b1a59081cdd185c9d08125160821b604482015260640161030b565b82821015801561048257506000548211155b6104bf5760405162461bcd60e51b815260206004820152600e60248201526d125b9d985b1a5908195b9908125160921b604482015260640161030b565b60006104cb8484610dc8565b6104d6906001610ddb565b905060008167ffffffffffffffff8111156104f3576104f3610c6b565b60405190808252806020026020018201604052801561055657816020015b6105436040805160a0810182526000808252606060208301529091820190815260006020820181905260409091015290565b8152602001906001900390816105115790505b50905060005b8281101561069e57600160006105728389610ddb565b81526020019081526020016000206040518060a0016040529081600082015481526020016001820180546105a590610d5f565b80601f01602080910402602001604051908101604052809291908181526020018280546105d190610d5f565b801561061e5780601f106105f35761010080835404028352916020019161061e565b820191906000526020600020905b81548152906001019060200180831161060157829003601f168201915b505050918352505060028281015460209092019160ff169081111561064557610645610ac7565b600281111561065657610656610ac7565b8152600382015460208201526004909101546001600160a01b0316604090910152825183908390811061068b5761068b610dee565b602090810291909101015260010161055c565b509150505b92915050565b600080821180156106a3575050600054101590565b6060600082116107105760405162461bcd60e51b815260206004820152601c60248201527f436f756e74206d7573742062652067726561746572207468616e203000000000604482015260640161030b565b6000805483116107205782610724565b6000545b905060008167ffffffffffffffff81111561074157610741610c6b565b6040519080825280602002602001820160405280156107a457816020015b6107916040805160a0810182526000808252606060208301529091820190815260006020820181905260409091015290565b81526020019060019003908161075f5790505b50905060005b828110156108f05760016000826000546107c49190610dc8565b81526020019081526020016000206040518060a0016040529081600082015481526020016001820180546107f790610d5f565b80601f016020809104026020016040519081016040528092919081815260200182805461082390610d5f565b80156108705780601f1061084557610100808354040283529160200191610870565b820191906000526020600020905b81548152906001019060200180831161085357829003601f168201915b505050918352505060028281015460209092019160ff169081111561089757610897610ac7565b60028111156108a8576108a8610ac7565b8152600382015460208201526004909101546001600160a01b031660409091015282518390839081106108dd576108dd610dee565b60209081029190910101526001016107aa565b509392505050565b60008251116109495760405162461bcd60e51b815260206004820152601960248201527f4950465320686173682063616e6e6f7420626520656d70747900000000000000604482015260640161030b565b60008054908061095883610daf565b91905055506040518060a00160405280600054815260200183815260200182600281111561098857610988610ac7565b815242602080830191909152336040928301526000805481526001808352929020835181559083015190918201906109c09082610e53565b5060408201518160020160006101000a81548160ff021916908360028111156109eb576109eb610ac7565b021790555060608201516003820155608090910151600490910180546001600160a01b0319166001600160a01b039092169190911790556000546040513391907ffdcb1e0789b89c6c122de9a59f89342c48f9877dddc611df24d74022eb67d3fc90610a5c90869086904290610f12565b60405180910390a35050565b600060208284031215610a7a57600080fd5b5035919050565b6000815180845260005b81811015610aa757602081850181015186830182015201610a8b565b506000602082860101526020601f19601f83011685010191505092915050565b634e487b7160e01b600052602160045260246000fd5b60038110610afb57634e487b7160e01b600052602160045260246000fd5b9052565b85815260a060208201526000610b1860a0830187610a81565b9050610b276040830186610add565b60608201939093526001600160a01b03919091166080909101529392505050565b600060208284031215610b5a57600080fd5b81356001600160a01b0381168114610b7157600080fd5b9392505050565b805182526000602082015160a06020850152610b9760a0850182610a81565b90506040830151610bab6040860182610add565b50606083810151908501526080928301516001600160a01b031692909301919091525090565b602081526000610b716020830184610b78565b60008060408385031215610bf757600080fd5b50508035926020909101359150565b6000602082016020835280845180835260408501915060408160051b86010192506020860160005b82811015610c5f57603f19878603018452610c4a858351610b78565b94506020938401939190910190600101610c2e565b50929695505050505050565b634e487b7160e01b600052604160045260246000fd5b803560038110610c9057600080fd5b919050565b60008060408385031215610ca857600080fd5b823567ffffffffffffffff811115610cbf57600080fd5b8301601f81018513610cd057600080fd5b803567ffffffffffffffff811115610cea57610cea610c6b565b604051601f8201601f19908116603f0116810167ffffffffffffffff81118282101715610d1957610d19610c6b565b604052818152828201602001871015610d3157600080fd5b81602084016020830137600060208383010152809450505050610d5660208401610c81565b90509250929050565b600181811c90821680610d7357607f821691505b602082108103610d9357634e487b7160e01b600052602260045260246000fd5b50919050565b634e487b7160e01b600052601160045260246000fd5b600060018201610dc157610dc1610d99565b5060010190565b818103818111156106a3576106a3610d99565b808201808211156106a3576106a3610d99565b634e487b7160e01b600052603260045260246000fd5b601f821115610e4e57806000526020600020601f840160051c81016020851015610e2b5750805b601f840160051c820191505b81811015610e4b5760008155600101610e37565b50505b505050565b815167ffffffffffffffff811115610e6d57610e6d610c6b565b610e8181610e7b8454610d5f565b84610e04565b6020601f821160018114610eb55760008315610e9d5750848201515b600019600385901b1c1916600184901b178455610e4b565b600084815260208120601f198516915b82811015610ee55787850151825560209485019460019092019101610ec5565b5084821015610f035786840151600019600387901b60f8161c191681555b50505050600190811b01905550565b606081526000610f256060830186610a81565b9050610f346020830185610add565b82604083015294935050505056fea2646970667358221220d77bffd44c952615eebe56644e79490c74c3c7dfb7229c0f32b894454ae7b09764736f6c634300081c0033",
  "linkReferences": {},
  "deployedLinkReferences": {}
}